:020000040800F2
:10000000C0230020D5180008311900083119000854
:1000100031190008311900083119000800000000EA
:10002000000000000000000000000000311900087E
:100030003119000800000000311900081D1E0008D9
:100040003119000831190008311900083119000868
:100050003119000831190008311900083119000858
:100060003119000831190008311900083119000848
:100070003119000831190008311900083119000838
:100080003119000831190008311900083119000828
:100090003119000831190008311900083119000818
:1000A0003119000831190008311900083119000808
:1000B0007D2700083119000831190008311900089E
:1000C00031190008311900083119000831190008E8
:1000D00031190008311900083119000831190008D8
:1000E0003119000831190008E931000831190008F8
:1000F00031190008311900083119000831190008B8
:1001000031190008311900083119000831190008A7
:100110003119000831190008311900083119000897
:100120003119000831190008311900083119000887
:100130003119000831190008311900083119000877
:10014000311900083119000831190008F931000887
:100150003119000831190008311900083119000857
:100160003119000831190008311900083119000847
:100170003119000831190008311900083119000837
:10018000311900083119000880B485B000AF7860DB
:100190000023FB607B68DB684FF0FF325A607B68AE
:1001A000DB686FF080425A61FB7B43F08003FB7396
:1001B0007B7B43F008037B737B68DB68FA689A619A
:1001C00000BF1437BD4680BC704700BF80B586B005
:1001D00000AF78600023FB7400237B610023FB6089
:1001E000032002F0CDFF7B68DB681B69FB607B6945
:1001F00001337B617B69184A934201D9002326E0D1
:10020000FB68C3F3C073DBB2002BE9D000237B6132
:10021000FB6843F00103FB607B68DB68FA681A61E6
:100220007B68DB681B69FB607B6901337B617B69F1
:10023000094A934206D8FB68C3F30003DBB2012BE3
:10024000EED000E000BF032002F09AFFFB7C1846CE
:100250001837BD4680BD00BF400D030080B489B093
:1002600000AFF860B96011461A460B46FB711346A1
:10027000BB800023FB76FB68DB78002B22D10023B8
:100280007B610023FB61BB880333002B00DA03335F
:100290009B107B61FB79FA6832339B0013449B68A7
:1002A0003B610023FB6109E0BB681A683B691A6087
:1002B000FB690133FB61BB680433BB60FA697B698E
:1002C0009A42F1D3FB7E18462437BD4680BC704766
:1002D00080B489B000AFF860B9601346FB8000239A
:1002E000FB61FB880333002B00DA03339B10BB61F7
:1002F000FB68D3F8D0307B610023FB6109E07B69A8
:100300001A68BB681A60FB690133FB61BB68043380
:10031000BB60FA69BB699A42F1D3BB6818462437BF
:10032000BD4680BC704700BF80B487B000AF786026
:100330000B46FB7000233B610023FB737B680022AC
:10034000DA707B6801229A707B6840229A80FB7881
:10035000012B13D14FF0A0433B617B680122DA727D
:100360007B6808221A707B6804225A707B684FF4FD
:10037000A072DA807B6802221A7211E0FB78002BEF
:100380000ED1454B3B617B680022DA727B680C2200
:100390001A707B6806225A707B684FF4A062DA807C
:1003A0003A697B68DA603B6903F500631A467B684B
:1003B0001A6100237B611CE07B695A013B6913448D
:1003C00003F5106319467A687B6904339B00134474
:1003D00099607B695A013B69134403F53063194600
:1003E0007A687B6914339B00134459607B6901333D
:1003F0007B617B685B781A467B699A42DCD83B69F3
:1004000003F580631A467B685A613B6903F588638C
:100410001A467B68C3F8CC2000237B610FE07B6920
:100420005A013B69134403F5A06319467A687B6956
:1004300022339B00134499607B6901337B617B68A5
:100440001B781A467B699A42E9D800237B610FE04A
:100450007B691A033B69134403F5805319467A6894
:100460007B6932339B00134499607B6901337B6164
:100470007B681B781A467B699A42E9D83B6903F589
:1004800060631A467B68C3F80C21FB7B18461C3757
:10049000BD4680BC704700BF0000044080B586B0F8
:1004A00000AF78600023FB7500233B610023FB60F5
:1004B0000023BB607B681B7A012B42D17B68DB6821
:1004C0009B6BFB60BB7B6FF30003BB737B685B7A4A
:1004D000002B03D0BB7B43F01003BB737B68DB684E
:1004E000FA689A6300233B617B68DB68DB683B61E9
:1004F0003B7C6FF386133B74BB7C6FF38613BB743A
:10050000BB7C6FF34103BB74BB7C6FF3C303BB7451
:100510007B68DB683A69DA607868FFF757FE7B68CA
:10052000DB78012B3DD13B7A052262F344033B7219
:100530003B7A43F020033B727B68DB68BA689A60C1
:100540002FE07B68DB68DB683B613B7C43F040036A
:100550003B747B68DB683A69DA607868FFF736FEDF
:100560000023FB60BB7B43F00103BB73BB7B43F009
:100570000403BB73BB7B43F00803BB73BB7B43F03B
:100580002003BB737B685B7A002B03D0BB7B43F0FB
:100590001003BB737B68DB68FA689A63142002F06F
:1005A00013FE7B68DB78012B10D17B68DB689B68CE
:1005B000BB603B7A052262F344033B723B7A43F013
:1005C00020033B727B68DB68BA689A60FB7D184643
:1005D0001837BD4680BD00BF80B485B000AF7860DD
:1005E0000023FB730023BB603B7A43F001033B72A3
:1005F0007B68DB687A68D2689168BA680A439A6057
:10060000FB7B18461437BD4680BC704780B485B06C
:1006100000AF78600023FB730023BB603B7A43F09C
:1006200001033B727B68DB687A68D2689168BA68BC
:10063000D2430A409A60FB7B18461437BD4680BC03
:10064000704700BF80B586B000AF78603960002386
:10065000FB7400237B610023FB60FB6843F02003F5
:10066000FB603B68DBB203F01F03DAB2FB6862F3A6
:100670008A13FB607B68DB68FA681A617B68DB6859
:100680001B69FB607B6901337B617B69094A93428B
:1006900006D8FB68C3F34013DBB2012BEED000E0B9
:1006A00000BF032002F06CFDFB7C18461837BD46E6
:1006B00080BD00BF400D030080B586B000AF7860FC
:1006C0000023FB7400237B610023FB60FB6843F085
:1006D0001003FB607B68DB68FA681A617B68DB6883
:1006E0001B69FB607B6901337B617B69094A93422B
:1006F00006D8FB68C3F30013DBB2012BEED000E099
:1007000000BF032002F03CFDFB7C18461837BD46B5
:1007100080BD00BF400D030080B584B000AF78609D
:100720000B46FB700023FB737B68DB68DB68BB60F8
:10073000FB7A6FF34513FB72FB7A6FF38613FB7240
:10074000FB78012B04D1FB7A43F02003FB7206E017
:10075000FB78002B03D1FB7A43F04003FB727B68EC
:10076000DB68BA68DA60322002F02EFDFB7B1846A7
:100770001037BD4680BD00BF80B483B000AF786045
:100780007B68DB685B6903F0010318460C37BD46E4
:1007900080BC704780B582B000AF78607868FFF7A2
:1007A000EBFF0346012B14BF01230023DBB21846E5
:1007B0000837BD4680BD00BF80B485B000AF78600B
:1007C0000023FB607B68DB685B69FB607B68DB6840
:1007D0009B69FA681340FB60FB6818461437BD46F6
:1007E00080BC704780B485B000AF78600B46FB706A
:1007F0007B681B691B68FB60FB7803F00303DAB2BC
:100800003B7B62F301033B737B681B69FA681A60E8
:1008100000BF1437BD4680BC704700BF80B58CB0A8
:1008200000AF7860002387F82B3000237B62002321
:100830003B620023FB610023BB6100237B617B687B
:10084000D3F80C3100221A607B681B691B683B627D
:1008500097F821306FF3C40387F821307B681B6958
:100860003A6A1A607B68DB7A012B33D103217868FE
:10087000FFF7B8FF7B68DB6880225A622023FB8386
:100880008023BB837B68DB68FA699A62BA8BFB8B37
:1008900013449BB23B8380237B837B68DB68BA690C
:1008A000C3F804213A8B7B8B13449BB23B832023F8
:1008B0007B837B68DB68BA69C3F808213A8B7B8B42
:1008C00013449BB23B8300237B837B68DB68BA695C
:1008D000C3F80C2110217868FFF7B4FE7868FFF7A1
:1008E000EBFE7B681B6900221A617B681B69002292
:1008F0005A617B681B694FF0FF329A617B681B6904
:100900000022DA610023FB623AE07A68FB6A043372
:100910009B0013449B681B687B6297F8273023F089
:100920007F03DBB2002B0ED000237B6297F82730C9
:1009300043F0400387F8273097F8273043F0080347
:1009400087F8273001E000237B627A68FB6A043372
:100950009B0013449B687A6A1A607A68FB6A0433C6
:100960009B0013449B6800221A617A68FB6A043377
:100970009B0013449B68FF229A60FB6A0133FB6271
:100980007B685B781A46FB6A9A42BED80023FB62FA
:1009900035E07A68FB6A14339B0013445B681B687C
:1009A000FB60FB7B23F07F03DBB2002B0AD000232C
:1009B000FB60FB7B43F04003FB73FB7B43F00803CE
:1009C000FB7301E00023FB607A68FB6A14339B0031
:1009D00013445B68FA681A607A68FB6A14339B00F8
:1009E00013445B6800221A617A68FB6A14339B0027
:1009F00013445B68FF229A60FB6A0133FB627B68E9
:100A00005B781A46FB6A9A42C3D800237B617B7DE0
:100A100043F001037B757B681B697A681269116971
:100A20007A69D24311407A690A431A617B68DB789C
:100A3000012B1BD100233B613B7C43F001033B7442
:100A40003B7C43F002033B743B8A402262F38A03FF
:100A50003B82BB7C43F00103BB747B8A402262F380
:100A600049037B827B681B693A691A63786800F0E6
:100A700007F897F82B3018463037BD4680BD00BFC9
:100A800080B584B000AF78600023FB730023BB60A7
:100A90007B68DB6800229A617B68DB686FF08042CC
:100AA0005A617868FFF770FB7B68DB78002B03D115
:100AB0003B7A43F010033B727B7A43F008037B726E
:100AC0007B7A43F010037B727B7A43F020037B72C6
:100AD000BB7A43F00403BB72BB7A43F00803BB72DA
:100AE0003B7A43F008033B72BB7A43F01003BB72BE
:100AF000BB7A43F02003BB727B68DB687A68D268FC
:100B00009169BA68D2431140BA680A439A61FB7B83
:100B100018461037BD4680BD80B485B000AF786000
:100B20000023FB737B681B699B68BB603B7AC3F344
:100B30004103DBB2022B09D0032B04D0012B02D0DE
:100B40000323FB7305E00223FB7302E00123FB7325
:100B500000BFFB7B18461437BD4680BC704700BF02
:100B600080B487B000AF78600023FB750023BB60C2
:100B70007B681B699B683B617B689B691B68FB60AA
:100B80003B7CC3F34103DBB2022B04D0BB896FF380
:100B90000A03BB8105E0BB89032262F30A03BB8120
:100BA00000BF7B689B69FA681A607B7A43F0010397
:100BB0007B727B681B697A6812695168BA68D24394
:100BC0001140BA680A435A60FB7D18461C37BD467F
:100BD00080BC704780B487B000AF78603960002374
:100BE000FB740023FB600023BB603B685B78012B38
:100BF0000FD13B681B787A6804339B0013449B68D1
:100C00007B613B681B781A46012393409BB23B8172
:100C10000EE03B681B787A6814339B0013445B68D2
:100C20007B613B681B781A46012393409BB27B8112
:100C30007B691B68FB607B7B23F07F03DBB2002BAF
:100C400027D13B689B689BB2C3F30A039AB2BB8966
:100C500062F30A03BB813B68DB7803F00303DAB27B
:100C6000BB7B62F38303BB733B68DB88DBB203F0BF
:100C70000F03DAB2FB8962F38913FB81FB7B43F03C
:100C80001003FB737B7B43F080037B73FA687B6903
:100C90001A607B681B697A681269D169BA680A436D
:100CA000DA61FB7C18461C37BD4680BC704700BF2C
:100CB00080B487B000AF786039600023FB740023F4
:100CC000FB600023BB603B685B78012B0FD13B6866
:100CD0001B787A6804339B0013449B687B613B68F4
:100CE0001B781A46012393409BB23B810EE03B6880
:100CF0001B787A6814339B0013445B687B613B6804
:100D00001B781A46012393409BB27B817B7B6FF358
:100D1000C7137B73FA687B691A607B681B697A6802
:100D20001269D169BA68D2430A40DA61FB7C18467D
:100D30001C37BD4680BC704780B588B000AF786076
:100D400039600023FB770023BB6100237B61002314
:100D50003B613B685B78012B40F0AB803B681B78C4
:100D60007A6804339B0013449B681B687B613B6873
:100D70001B787A6804339B0013449B681B693B61B2
:100D80003B685B69002B09D13B696FF312033B6140
:100D90007B8A012262F3CC037B8222E03B685B69A1
:100DA000C3F312023B6962F312033B613B685A6969
:100DB0003B689B6813445A1E3B689B68B2FBF3F385
:100DC0009BB2C3F309039AB27B8A62F3CC037B82A2
:100DD0003B68DB78012B04D1FB7C012262F34613D4
:100DE000FB743B681B787A6804339B0013449B6850
:100DF0003A691A617B68DB78012B0AD13B681B7862
:100E00007A6804339B0013449B683A6812695A61FC
:100E100015E03B68DB78012B11D03B685B69002B48
:100E20000DD03B681B781A4601239340BB617B6859
:100E30001B697A681269516BBA690A435A633B6845
:100E4000DB78012B14D17B681B699B68FB60FB6816
:100E5000C3F30D239BB203F00103002B04D1FB7DF0
:100E600043F02003FB7503E0FB7D43F01003FB75AB
:100E7000FB7D43F00403FB75FB7D43F08003FB75B2
:100E80003B681B787A6804339B0013449B687A693B
:100E90001A603B68DB78012B40F089803B68D96899
:100EA0003B681A783B685B699BB27868FFF7D6F9B4
:100EB0007DE03B681B787A6814339B0013445B68C1
:100EC0001B687B613B681B787A6814339B00134472
:100ED0005B681B693B613B685B69002B0DD13B681C
:100EE0009B68C3F312023B6962F312033B617B8A86
:100EF000012262F3CC037B8220E03B685A693B68A5
:100F00009B6813445A1E3B689B68B2FBF3F39BB289
:100F1000C3F309039AB27B8A62F3CC037B827B8A98
:100F2000C3F3C9039BB21A463B689B6803FB02F3F9
:100F3000C3F312023B6962F312033B613B681B7807
:100F40007A6814339B0013445B683A691A617B68C2
:100F5000DB78012B09D13B681B787A6814339B003E
:100F600013445B683A6812695A613B68DB78012B6D
:100F70000CD13B685B79002B04D0FB7D43F0200350
:100F8000FB7503E0FB7D43F01003FB75FB7D43F035
:100F90000403FB75FB7D43F08003FB753B681B7806
:100FA0007A6814339B0013445B687A691A60FB7F8C
:100FB00018462037BD4680BD80B489B000AF786048
:100FC00039600023FB770023BB6100233B610023D2
:100FD000BB603B685B78012B70D17B689B697B6150
:100FE0007B691B683B617B691B69BB603B685B6914
:100FF000002B09D13B7A6FF306033B72BB7A0122C7
:1010000062F3C403BB7223E03B685A693B689B6888
:101010009A420ED93B689A683B685A613B689B6864
:10102000DBB203F07F03DAB23B7A62F306033B7272
:1010300009E03B685B69DBB203F07F03DAB23B7A1D
:1010400062F306033B72BB7A012262F3C403BB72F4
:10105000BA687B691A617B68DB78012B09D13B6830
:101060001B787A6804339B0013449B683A681269C2
:101070005A61FB7C43F00403FB74FB7C43F0800368
:10108000FB743A697B691A607B68DB78002B76D148
:101090003B685B69002B72D03B681B781A460123C2
:1010A00093401A46BB691343BB617B681B697A682E
:1010B0001269516BBA690A435A6360E03B681B7856
:1010C0007A6814339B0013445B681B683B613B6880
:1010D0001B787A6814339B0013445B681B69BB6000
:1010E0003B685B69002B0FD13B689B68DBB203F068
:1010F0007F03DAB23B7A62F306033B72BB7A0122CA
:1011000062F3C403BB7212E03B689A683B685A61A1
:101110003B689B68DBB203F07F03DAB23B7A62F391
:1011200006033B72BB7A012262F3C403BB723B68C5
:101130001B787A6814339B0013445B68BA681A61A1
:101140007B68DB78012B09D13B681B787A68143304
:101150009B0013445B683A6812695A61FB7C43F058
:101160000403FB74FB7C43F08003FB743B681B7837
:101170007A6814339B0013445B683A691A60FB7FFA
:1011800018462437BD4680BC704700BF80B487B086
:1011900000AF786039600023FB750023FB603B687B
:1011A0005B78012B1CD13B681B787A6804339B0069
:1011B00013449B683B613B691B68FB60FB7B23F02E
:1011C0007F03DBB2002B03D0FB7B43F04003FB73B8
:1011D000BB7B43F02003BB73FA683B691A6011E0E4
:1011E0003B681B787A6814339B0013445B683B614F
:1011F0003B691B68FB60BB7B43F02003BB73FA6851
:101200003B691A60FB7D18461C37BD4680BC7047A1
:1012100080B487B000AF786039600023FB7400238E
:10122000FB603B685B78012B08D13B681B787A68D0
:1012300004339B0013449B687B6107E03B681B7889
:101240007A6814339B0013445B687B617B691B687D
:10125000FB60BB7B6FF34513BB733B68DB78032BF1
:1012600003D03B68DB78022B03D1FB7B43F01003F8
:10127000FB73FA687B691A60FB7C18461C37BD4615
:1012800080BC704780B485B000AF78607B681B6914
:101290009B69FB607B681B69DB69FA681340FB6034
:1012A000FB681B0C18461437BD4680BC704700BF56
:1012B00080B485B000AF78600B46FB70FB787A682D
:1012C00014339B0013445B689B68FB607B681B695D
:1012D0005B69FA681340FB60FB6818461437BD462B
:1012E00080BC704780B485B000AF78607B681B69B4
:1012F0009B69FB607B681B69DB69FA681340FB60D4
:10130000FB689BB218461437BD4680BC704700BFCF
:1013100080B487B000AF786000233B61FB7C43F072
:10132000C003FB74BB7C012262F3C403BB743B7C2F
:10133000182262F306033B747B685B6D3A691A619D
:101340007B68DB78012B16D10023FB607B685B6D2B
:101350007A6802F2CC525A617B685B6D1B68FB6055
:10136000FB7B43F08003FB734FF08023FB607B68C3
:101370005B6DFA681A6000BF1C37BD4680BC7047C1
:1013800080B400AF064B1B68002B04D0044B1B68D5
:10139000013B034A136000BFBD4680BC704700BFDD
:1013A000F00A002080B483B000AF7860064A7B6802
:1013B000136000BF044B1B68002BFBD100BF0C3730
:1013C000BD4680BC704700BFF00A002080B582B0E7
:1013D00000AF786003E04FF47A70FFF7E3FF7B68BB
:1013E0005A1E7A60002BF6D100BF0837BD4680BD7B
:1013F00080B485B000AF78604FF080435B6AFB60DB
:1014000000BF4FF080435A6AFB689A42F9D04FF010
:1014100080435B6AFB607B68013B7B607B68002BE1
:10142000EED100BF1437BD4680BC704780B582B096
:1014300000AF03460A46FB711346BB7101F01CFA6C
:1014400000F08EF94AF6C870FFF7D2FF2A4ABB793E
:10145000D370294AFB791371274B00225A71264B0E
:1014600000229A71244B00225A70BB79012B06D9B5
:10147000214B5B7843F00803DAB21F4B5A7003200C
:1014800000F01CF941F29410FFF7B2FF032000F0C6
:1014900015F941F29410FFF7ABFF032000F00EF9AD
:1014A00041F29410FFF7A4FF022000F007F9642036
:1014B000FFF79EFF104B5B7843F02003DBB218462A
:1014C00000F0C4F80C4B04221A7000F075F800F01C
:1014D00015F8094B02229A70074B9B7843F00403DE
:1014E000DBB2184600F0B2F841F29410FFF780FF2B
:1014F00000BF0837BD4680BDF40A002080B500AFAC
:10150000012000F0A3F840F6B830FFF771FF00BFEC
:1015100080BD00BF80B582B000AF786042E0254B4F
:101520005A79244B1B799A4210D3224B00225A71CC
:10153000204B9B790133DAB21E4B9A711D4B5A79BD
:101540001C4B9B791946104600F04CF87B681B78C1
:101550000A2B0ED1174B9B790133DAB2154B9A71D6
:10156000144B5A79134B9B791946104600F03AF800
:1015700015E07B681B780D2B06D10E4B9B79194625
:10158000002000F02FF80AE07B681B78184600F076
:1015900079F8084B5B790133DAB2064B5A717B68F4
:1015A00001337B607B681B78002BB8D100BF083704
:1015B000BD4680BDF40A002080B500AF084B1B7803
:1015C00043F00403DAB2064B1A70054B1B7843F064
:1015D0000803DBB2184600F039F800BF80BD00BF39
:1015E000F40A002080B584B000AF03460A46FB71C0
:1015F0001346BB71134A07F10C0310681860124BB5
:10160000DB78BA799A4201D30023BB710E4AFB7989
:1016100053710D4ABB799371BB7907F110021344E2
:1016200013F8042CFB791344DBB25BB263F07F0345
:101630005BB2DBB2184600F009F800BF1037BD46B8
:1016400080BD00BF9CA50008F40A002080B582B0D0
:1016500000AF0346FB710A4B4FF400725A83FB79CB
:101660001B09DBB2184600F029F8FB7903F00F03E1
:10167000DBB2184600F022F800BF0837BD4680BD37
:101680000010024080B582B000AF0346FB710A4BE8
:101690004FF400721A83FB791B09DBB2184600F085
:1016A0000DF8FB7903F00F03DBB2184600F006F8E3
:1016B00000BF0837BD4680BD0010024080B582B033
:1016C00000AF0346FB71FB7903F00803002B04D045
:1016D000224B4FF400421A8303E0204B4FF40042A8
:1016E0005A83FB7903F00403002B04D01B4B4FF407
:1016F00080421A8303E0194B4FF480425A83FB79EE
:1017000003F00203002B04D0144B4FF400521A8351
:1017100003E0124B4FF400525A83FB7903F00103AC
:10172000002B04D00D4B4FF480521A8303E00B4B77
:101730004FF480525A83094B4FF400621A831420ED
:10174000FFF756FE054B4FF400625A831420FFF753
:101750004FFE00BF0837BD4680BD00BF00100240ED
:1017600080B582B002AF00230193002300930023D1
:1017700001224FF400712A4803F08AFB00230193F1
:1017800000230093002301224FF40061244803F05A
:101790007FFB0023019300230093002301224FF4D9
:1017A00080511F4803F074FB002301930023009332
:1017B000002301224FF40051194803F069FB002374
:1017C000019300230093002301224FF48041144829
:1017D00003F05EFB0023019300230093002301220A
:1017E0004FF400410E4803F053FB0D4B4FF40072D1
:1017F0005A830B4B4FF400625A83094B4FF48052CB
:101800005A83074B4FF400525A83054B4FF48042E2
:101810005A83034B4FF400425A8300BFBD4680BD3C
:101820000010024080B400AF034B05221A7000BFC5
:10183000BD4680BC704700BF0000002080B483B06C
:1018400000AF0346FB71044B05221A7000BF0C3732
:10185000BD4680BC704700BF0000002080B400AFD0
:10186000034B06221A7000BFBD4680BC704700BF04
:101870000000002080B400AF034B05221A7000BFA7
:10188000BD4680BC704700BF0000002080B400AFA0
:10189000034B05221A7000BFBD4680BC704700BFD5
:1018A0000000002080B400AF034B05221A7000BF77
:1018B000BD4680BC704700BF0000002080B400AF70
:1018C000034B05221A7000BFBD4680BC704700BFA5
:1018D0000000002080B582B000AF104B7B60104B41
:1018E0003B6007E03B681A1D3A607A68111D796019
:1018F00012681A603B680B4A9342F3D30A480B49BB
:101900004FF000028842B8BF40F8042BFADB00F029
:1019100035FB00BF0837BD4680BD00BFC4A8000826
:1019200000000020F00A0020F00A0020BC1B00206C
:1019300080B400AFFEE700BF80B584B000AFF860B0
:101940007A603B600B46FB72F86801F0A7FBF86811
:1019500000F01EF8FB683A68C3F8E425FB68BA6932
:10196000C3F8E825FB687A68C3F8EC25FB7A1946CA
:10197000F86803F05DF8FB68D3F8E8351B68984712
:10198000F86801F0E3FB00BF1037BD4680BD00BF23
:1019900080B483B000AF7860002318460C37BD4692
:1019A00080BC704780B584B000AF786007F1080351
:1019B0001946786802F000F83B7A03F01F03012B08
:1019C0000AD0022B0FD0002B14D107F108031946BF
:1019D000786801F01BFC16E007F1080319467868E7
:1019E00001F064FC0FE007F108031946786801F084
:1019F00091FC08E03B7A23F07F03DBB2194678685C
:101A000003F0ACF900BF002318461037BD4680BD77
:101A100080B584B000AF78600B46FB70FB78002B7C
:101A200044D17B6803F55D73FB607B6893F81131EB
:101A3000032B4ED1FB68DA69FB689B689A4220D978
:101A4000FB68DA69FB689B68D21AFB68DA617B681D
:101A5000DB78012B06D1FB68DA68FB689B681A44C7
:101A6000FB68DA60FB68D968FB689A68FB68DB6929
:101A7000934228BF13469BB21A46786803F0DEFCF7
:101A800027E07B68D3F8E4351B69002B0AD07B681C
:101A900093F81231032B05D17B68D3F8E4351B6929
:101AA00078689847786803F0DDFC12E07B68D3F82B
:101AB000E4359B69002B0CD07B6893F81231032B23
:101AC00007D17B68D3F8E4359B69FA7811467868CA
:101AD0009847002318461037BD4680BD80B584B0B6
:101AE00000AF78600B46FB70FB78002B6BD17B68F6
:101AF00003F58E73FB607B6893F81131022B55D18F
:101B0000FB68DA69FB689B689A421BD9FB68DA6953
:101B1000FB689B68D21AFB68DA617B68DB78012B73
:101B200006D1FB68DA68FB689B681A44FB68DA60D8
:101B3000FB68D968FB68DB699BB21A46786803F0DA
:101B400049FC33E0FB681B6AFA689268B3FBF2F168
:101B500002FB01F29B1A002B14D1FB681A6AFB6886
:101B60009B689A420ED3FB681A6AFB685B6A9A42CA
:101B700008D200220021786803F02CFCFB680022C8
:101B80005A6213E07B68D3F8E435DB68002B0AD097
:101B90007B6893F81231032B05D17B68D3F8E435C9
:101BA000DB6878689847786803F074FC7B6893F882
:101BB0001631012B1AD1786800F01EF87B680022DC
:101BC00083F8162112E07B68D3F8E4355B69002BBB
:101BD0000CD07B6893F81231032B07D17B68D3F8C4
:101BE000E4355B69FA78114678689847002318460F
:101BF0001037BD4680BD00BF80B483B000AF7860B1
:101C00007B681B69044A12685A60002318460C3727
:101C1000BD4680BC704700BFA40B002080B582B0D9
:101C200000AF7860002340220021786802F084FF32
:101C3000002340228021786802F07EFF7B68012229
:101C400083F812217B68D3F8E8355B687A6892786C
:101C500010469847002318460837BD4680BD00BF90
:101C600080B582B000AF78607B68D3F8E8351B6937
:101C700098477B6893F813217B6883F812217B686F
:101C8000032283F81221002318460837BD4680BD81
:101C900080B582B000AF78607B6893F812217B68D2
:101CA00083F813217B68042283F812217B68D3F820
:101CB000E835DB689847002318460837BD4680BDE5
:101CC00080B582B000AF78607B68D3F8E435DB691B
:101CD000002B05D07B68D3F8E435DB69786898473A
:101CE000002318460837BD4680BD00BF80B582B0CE
:101CF00000AF78600B46FB707B68D3F8E4351B6857
:101D0000FA781146786898477B68D3F8E8359B687D
:101D10009847002318460837BD4680BD80B582B07D
:101D200000AF78600B46FB707B68D3F8E4355B68E6
:101D3000FA78114678689847002318460837BD4658
:101D400080BD00BF80B582B000AF78607B68D3F8FB
:101D5000E4351B6A78689847002318460837BD4663
:101D600080BD00BF80B582B000AF78607B68D3F8DB
:101D7000E4355B6A78689847002318460837BD4603
:101D800080BD00BF80B483B000AF03463960FB71F3
:101D900097F90730002B0BDA0D49FB7903F00F039D
:101DA000043B3A68D2B21201D2B20B441A7609E06F
:101DB000084997F907303A68D2B21201D2B20B44FF
:101DC00083F8002300BF0C37BD4680BC704700BFBE
:101DD00000ED00E000E100E080B582B000AF786087
:101DE0007B68B3F1807F01D3012311E00A4A7B684D
:101DF00023F07F43013B53600F214FF0FF30FFF78B
:101E0000C1FF054B00229A60034B07221A60002392
:101E100018460837BD4680BD10E000E080B500AF31
:101E2000FFF7AEFA00BF80BD80B58CB000AF0121D6
:101E3000012000F01FFA01214FF4807000F074FAC5
:101E40000223BB62032387F82C30002387F82F304E
:101E500007F1280319461C4800F06EFE0023BB6101
:101E60000023FB6100233B6200237B6207F1180320
:101E7000184600F023FB00233B6000233B71012345
:101E80007B710023BB600023FB6000233B610123C7
:101E90003B753B46184600F0F3FA3B4619460B48A3
:101EA00000F09AFA072301220121084800F04AFBBA
:101EB0000121064800F020FC0121044800F026FB27
:101EC00000BF3037BD4680BD000002400020014009
:101ED00080B582B000AF0346FB71F9790723012278
:101EE0000E4800F02FFB01210C4800F005FC0B48C8
:101EF00000F0F2FB00BF0221084800F025FC034679
:101F0000002BF8D0054800F013FC0346184604F0F7
:101F10006BF8034618460837BD4680BD00200140D7
:101F200080B582B000AF0121102000F0A3F94FF47A
:101F30007F433B6001233B710023BB7102237B7114
:101F40000023FB713B4619460B4800F0F5FD00F0FD
:101F500093FC02211020FFF769FAFFF7CFFA4FF444
:101F60008061054800F076FE034B4FF480721A83BF
:101F700000BF0837BD4680BD0010024090B583B059
:101F800000AF00F0C5FF012000F090F800BF00F0A6
:101F90009FF80346002BFAD000BF3C4B1B683C4A1D
:101FA000A2FB03239B0C1846FFF716FF0346002BEA
:101FB000F3D1FFF7B5FFFFF737FF364B4FF48072D1
:101FC0001A83344B4FF480725A83324B4FF4807231
:101FD0001A83FFF793FA00210020FFF703FB2E4836
:101FE000FFF798FA01210020FFF7FCFA2B48FFF7D2
:101FF00091FA00F039FDFFF781FA00210020FFF788
:10200000F1FA2748FFF786FA0120FFF761FF034640
:10201000184604F091F903467B6000233B601AE008
:10202000786803F0E5FF04460120FFF751FF0346FF
:102030001946204603F028FF03464FF0804118461A
:1020400004F0DEF80346184604F076F903467B6098
:102050003B6801333B603B680A2BE1DD0121002036
:10206000FFF7C0FA7A680F490F4804F059FC0921BC
:102070000D4800F025FD01210020FFF7B3FA0A48C2
:10208000FFF748FA6420FFF7A1F9B6E7BC0000208B
:1020900083DE1B4300100240A0A50008B0A5000885
:1020A000BCA50008C0A50008A80B002080B483B020
:1020B00000AF0346FB71054B00221A70034AFB79FF
:1020C000137000BF0C37BD4680BC70470238024019
:1020D00080B582B000AF00233B600023FB7100237A
:1020E000BB71312000F03EF90346BB713B68013300
:1020F0003B603B68B3F5A06F02D0BB79002BF0D0FA
:10210000312000F02FF90346002B02D00123FB7190
:1021100001E00023FB71FB7918460837BD4680BDFE
:1021200080B489B000AF78600023BB6100237B617D
:102130000023FB6102233B610023FB600223BB60A1
:10214000484B9B6803F00C03BB61BB69042B07D0B1
:10215000082B09D0002B3FD17B68434A1A603FE02F
:102160007B68424A1A603BE03E4B5B6803F48003A5
:102170009B0DFB603B4B5B6803F03F03BB60FB6860
:10218000002B0DD0394ABB68B2FBF3F2354B5968CE
:1021900047F6C0730B409B0903FB02F3FB610CE0A5
:1021A000314ABB68B2FBF3F22E4B596847F6C07355
:1021B0000B409B0903FB02F3FB612A4B5B6803F4B2
:1021C00040331B0C01335B003B61FA693B69B2FB96
:1021D000F3F27B681A6003E07B68234A1A6000BF51
:1021E000204B9B6803F0F003BB61BB691B09BB611B
:1021F0001F4ABB6913441B78DBB27B617B681A689A
:102200007B69DA407B685A60164B9B6803F4E053A5
:10221000BB61BB699B0ABB61154ABB6913441B7850
:10222000DBB27B617B685A687B69DA407B689A60C5
:102230000C4B9B6803F46043BB61BB695B0BBB61E8
:102240000B4ABB6913441B78DBB27B617B685A681D
:102250007B69DA407B68DA6000BF2437BD4680BC0A
:10226000704700BF003802400024F40000127A00DA
:102270005000002080B483B000AF78600B46FB7044
:10228000FB78002B06D00949084B1A6B7B68134377
:102290000B6306E00549054B1A6B7B68DB43134073
:1022A0000B6300BF0C37BD4680BC7047003802404E
:1022B00080B483B000AF78600B46FB70FB78002BD6
:1022C00006D00949084B5A6B7B6813434B6306E001
:1022D0000549054B5A6B7B68DB4313404B6300BFDA
:1022E0000C37BD4680BC70470038024080B483B0D4
:1022F00000AF78600B46FB70FB78002B06D00949D5
:10230000084B1A6C7B6813430B6406E00549054BC8
:102310001A6C7B68DB4313400B6400BF0C37BD466F
:1023200080BC70470038024080B483B000AF786052
:102330000B46FB70FB78002B06D00949084B5A6C02
:102340007B6813434B6406E00549054B5A6C7B6878
:10235000DB4313404B6400BF0C37BD4680BC704765
:102360000038024080B487B000AF0346FB71002301
:10237000FB6000237B610023FB74FB795B09DBB20C
:10238000FB60FB68012B03D1124B1B687B6109E0EA
:10239000FB68022B03D10F4B1B6F7B6102E00D4BDF
:1023A0005B6F7B61FB7903F01F03FB607A69FB685D
:1023B00022FA03F303F00103002B02D00123FB7484
:1023C00001E00023FB74FB7C18461C37BD4680BC33
:1023D000704700BF0038024080B485B000AF78601D
:1023E00039600023FB600023FB727B685B68FB6045
:1023F000FB6823F0407323F48073FB603B681B7918
:102400001A023B681B681343FA681343FB607B683E
:10241000FA685A607B689B68FB60FA68174B134048
:10242000FB603B681A693B68DB681A433B689B6842
:102430001A433B685B795B001343FA681343FB6004
:102440007B68FA689A607B68DB6AFB60FB6823F450
:102450007003FB603B681B7D013BDAB2FB7A1343E0
:10246000FB72FB7A1B05FA681343FB607B68FA6812
:10247000DA6200BF1437BD4680BC7047FDF7FFC06D
:1024800080B483B000AF78607B6800221A607B68FC
:1024900000221A717B6800225A717B6800229A60C0
:1024A0007B680022DA607B6800221A617B68012267
:1024B0001A7500BF0C37BD4680BC704780B485B02C
:1024C00000AF78600023FB600E4B5B68FB60FA682E
:1024D0000D4B1340FB607B681A687B685B681A438E
:1024E0007B689B681A437B68DB681343FA68134375
:1024F000FB60044AFB68536000BF1437BD4680BCD4
:10250000704700BF00230140E030FCFF80B483B07F
:1025100000AF78600B46FB70FB78002B06D07B6821
:102520009B6843F001027B689A6005E07B689B68CA
:1025300023F001027B689A6000BF0C37BD4680BC67
:10254000704700BF80B485B000AF78600846114680
:102550001A460346FB700B46BB7013467B70002384
:10256000FB600023BB60FB78092B23D97B68DB6809
:10257000FB60FB78A3F10A0213465B0013440722B9
:1025800002FA03F3BB60BB68DB43FA681340FB60ED
:102590007978FB78A3F10A0213465B00134401FA31
:1025A00003F3BB60FA68BB681343FB607B68FA689F
:1025B000DA601EE07B681B69FB60FA7813465B00FB
:1025C0001344072202FA03F3BB60BB68DB43FA68DB
:1025D0001340FB607978FA7813465B00134401FAE4
:1025E00003F3BB60FA68BB681343FB607B68FA685F
:1025F0001A61BB78062B21D87B685B6BFB60BB78CC
:102600005A1E13469B0013441F2202FA03F3BB60B9
:10261000BB68DB43FA681340FB60F978BB785A1E4D
:1026200013469B00134401FA03F3BB60FA68BB68CE
:102630001343FB607B68FA685A6347E0BB780C2B56
:1026400021D87B681B6BFB60BB78DA1F13469B00AD
:1026500013441F2202FA03F3BB60BB68DB43FA6832
:102660001340FB60F978BB78DA1F13469B001344D4
:1026700001FA03F3BB60FA68BB681343FB607B6835
:10268000FA681A6322E07B68DB6AFB60BB78A3F11F
:102690000D0213469B0013441F2202FA03F3BB6092
:1026A000BB68DB43FA681340FB60F978BB78A3F1A1
:1026B0000D0213469B00134401FA03F3BB60FA6852
:1026C000BB681343FB607B68FA68DA6200BF1437AB
:1026D000BD4680BC704700BF80B483B000AF786057
:1026E0007B689B6843F080427B689A6000BF0C3730
:1026F000BD4680BC704700BF80B483B000AF786037
:102700000B46FB70FB78002B06D07B689B6843F47C
:1027100080627B689A6005E07B689B6823F4806236
:102720007B689A6000BF0C37BD4680BC704700BF15
:1027300080B483B000AF78607B68DB6C9BB21846D6
:102740000C37BD4680BC704780B485B000AF786060
:102750000B46FB700023FB737B681A68FB78134001
:10276000002B02D00123FB7301E00023FB73FB7BF2
:1027700018461437BD4680BC704700BF80B582B094
:1027800000AF4FF080434FF6FE721A82374B1B6842
:102790000133364A1360364B1B68002B04D0344B90
:1027A0001B68013B324A1360AFF300800023FB71CA
:1027B00052E0FB792F4A9B0013445B68002B48D002
:1027C000FB792C4A9B0013445B681B7B002B40D099
:1027D000FB79284A9B0013445B689B68002B38D028
:1027E000FB79244A9B0013445B689A68013A9A601B
:1027F000FB79204A9B0013445B689B68002B28D11F
:10280000FB791C4A9B0013445B681A69FB791949E0
:102810009B000B445B685B6918469047FB79154A3F
:102820009B0013445A68FB7912499B000B445B6878
:102830001B689360FB790F4A9B0013445B685B68DD
:10284000002B06D1FB790B4A9B0013445B680022E6
:102850001A73FB790133FB71064B1B78FA799A42A4
:10286000A7D300BF0837BD4680BD00BF000B0020C6
:10287000040B00200C0B002080B500AF00F008F81E
:10288000024B01221A7000BF80BD00BF080B002060
:1028900080B58AB000AF3B4619464FF0804002F049
:1028A000C9FB394628A3D3E90023084602F042FCBD
:1028B0004FF0804002F0CAFC0023BB840023FB835E
:1028C00040F2E7333B62224B1A68214B19683B68A0
:1028D000B1FBF3F31F4901FB03F3B2FBF3F39BB22C
:1028E000013B9BB2BB83002387F8263007F11C0312
:1028F00019464FF0804002F0E5FD4FF080424FF066
:1029000080439B899BB243F001039BB293811C23BC
:102910003B760123FB7600237B760023BB7607F111
:102920001803184602F024F84FF080424FF080431D
:102930001B889BB243F001039BB2138000BF283772
:10294000BD4680BDAFF300800000000080842E41B2
:10295000BC00002040420F0080B483B000AF0346AB
:102960003960FB713B6812221A80034B18460C3702
:10297000BD4680BC704700BF7C00002080B483B09F
:1029800000AF03463960FB713B6804221A80034B99
:1029900018460C37BD4680BC704700BF9C00002025
:1029A00080B582B000AF03463960FB713A680449D4
:1029B000044801F05DF8024B18460837BD4680BD5B
:1029C0002C120020CCA5000880B582B000AF0346D1
:1029D0003960FB713A680449044801F049F8024B38
:1029E00018460837BD4680BD2C120020F0A500080F
:1029F00080B582B000AF03463960FB713A68044984
:102A0000044801F035F8024B18460837BD4680BD32
:102A10002C12002004A6000880B582B000AF034647
:102A20003960FB713A680449044801F021F8024B0F
:102A300018460837BD4680BD2C12002014A6000899
:102A400080B582B000AF03463960FB713A68044933
:102A5000044801F00DF8024B18460837BD4680BD0A
:102A60002C12002020A6000880B582B002AF0C4BCB
:102A700000930C4B0C4A01210C48FEF75DFF0C4BF8
:102A800000221A600B4B00221A600B4B00221A60C6
:102A90000A4B01221A7000231846BD4680BD00BFB4
:102AA000040000201801002060000020380C0020E5
:102AB000AC0B0020B40B0020B00B0020240B002036
:102AC00080B582B000AF786039603968786800F00E
:102AD000D5F9002318460837BD4680BD80B483B0C1
:102AE00000AF0346FB71114B1B687F2B17D8104BAF
:102AF0001B687F2B02D90E4B00221A600C4B1B68FF
:102B00000C49FA79CA540A4B1B680133084A13600E
:102B1000064B1B680133054A1360002300E00223C3
:102B200018460C37BD4680BC704700BFB00B002074
:102B3000AC0B0020B80B002080B487B000AF7860E9
:102B4000396000237B6100233B610023FB6000238D
:102B50007B6176E001227B6902FA03F33B613B680B
:102B60001A683B691340FB60FA683B699A4265D179
:102B70007B681A687B695B00032101FA03F3DB437E
:102B80001A407B681A607B681A683B681B79194693
:102B90007B695B0001FA03F31A437B681A603B68A8
:102BA0001B79012B03D03B681B79022B2ED17B684C
:102BB0009A687B695B00032101FA03F3DB431A4047
:102BC0007B689A607B689A683B685B7919467B6989
:102BD0005B0001FA03F31A437B689A607B685A68CA
:102BE0007B699BB2194601238B40DB431A407B680B
:102BF0005A607B685B683A68927911467A6992B24A
:102C000001FA02F292B21A437B685A607B68DA6872
:102C10007B699BB25B00032101FA03F3DB431A409B
:102C20007B68DA607B68DA683B68DB7919467B6928
:102C30005B0001FA03F31A437B68DA607B690133B6
:102C40007B617B690F2B85D900BF1C37BD4680BCDB
:102C5000704700BF80B483B000AF78600B467B80C4
:102C60007B687A885A8300BF0C37BD4680BC7047AA
:102C700080B485B000AF78600B467B8013467B70D4
:102C80000023FB600023BB607A787B8803F0070396
:102C90009B0002FA03F3FB607B88DB089BB21846BB
:102CA0007B88DB089BB21A467B68083253F82220E7
:102CB0007B8803F007039B000F2101FA03F3DB433A
:102CC00002EA03017B6800F1080243F822107B88C6
:102CD000DB089BB21A467B68083253F82220FB6857
:102CE0001343BB607B88DB089BB21A467B680832C3
:102CF000B96843F8221000BF1437BD4680BC704746
:102D000080B400AF00231846BD4680BC704700BFAA
:102D100080B400AF00231846BD4680BC704700BF9A
:102D200080B485B000AFF860B9607A60FB68232B8F
:102D300000F29B8001A252F823F000BF6B2E000826
:102D40006B2E00086B2E00086B2E00086B2E0008FF
:102D50006B2E00086B2E00086B2E00086B2E0008EF
:102D60006B2E00086B2E00086B2E00086B2E0008DF
:102D70006B2E00086B2E00086B2E00086B2E0008CF
:102D80006B2E00086B2E00086B2E00086B2E0008BF
:102D90006B2E00086B2E00086B2E00086B2E0008AF
:102DA0006B2E00086B2E00086B2E00086B2E00089F
:102DB0006B2E00086B2E00086B2E0008CD2D00082E
:102DC000172E00086B2E00086B2E0008BB681B78BE
:102DD0001A46BB6801331B781B021A43BB680233D7
:102DE0001B781B041A43BB6803331B781B06134371
:102DF0001A46214B1A60BB681A791F4B1A71BB68BF
:102E00005A791D4B5A71BB689A791B4B9A711A4BB0
:102E10000122DA712AE0184B1B68DAB2BB681A701B
:102E2000BB680133144A1268120AD2B21A70BB6826
:102E30000233114A1268120CD2B21A70BB68033303
:102E40000D4A1268120ED2B21A70BB6804330A4AD5
:102E500012791A70BB680533074A52791A70BB6839
:102E60000633054A92791A7000E000BF0023184625
:102E70001437BD4680BC7047A000002080B485B0E8
:102E800000AF786039600023FB6017E0104B1B68CF
:102E90007968FA680A4411780E4AD1540C4B1B68C1
:102EA00001330B4A13600A4B1B68B3F5006F02D362
:102EB000074B00221A60FB680133FB60FA683B682D
:102EC0009A42E3D3002318461437BD4680BC7047AE
:102ED000400B0020B813002080B584B000AF7860AC
:102EE00039600023FB6009E07A68FB6813441B78B3
:102EF0001846FFF7F3FDFB680133FB60FA683B6897
:102F00009A42F1D3002318461037BD4680BD00BF5A
:102F100080B500AF124A124B1B6843F001031360E7
:102F20000F4B00229A600E4A0D4B1B6823F08473EE
:102F300023F4803313600A4B0A4A5A60084A084B4C
:102F40001B6823F480231360054B0022DA6000F035
:102F50000DF8054B4FF000629A6000BF80BD00BFC6
:102F6000003802401030002400ED00E080B483B04F
:102F700000AF00237B6000233B60354A344B1B6865
:102F800043F480331360324B1B6803F400333B601F
:102F90007B6801337B603B68002B03D17B68B3F512
:102FA000A06FF0D12A4B1B6803F40033002B02D032
:102FB00001233B6001E000233B603B68012B42D1D1
:102FC000234A234B1B6C43F080531364214A214B4B
:102FD0001B6843F4804313601D4A1D4B9B6893603C
:102FE0001B4A1B4B9B6843F400439360184A184BE1
:102FF0009B6843F4A0539360154B174A5A60144AD8
:10300000134B1B6843F08073136000BF104B1B68A9
:1030100003F00073002BF9D0104B40F205621A60E8
:103020000B4A0B4B9B6823F003039360084A084B41
:103030009B6843F00203936000BF054B9B6803F05D
:103040000C03082BF9D100BF0C37BD4680BC70477C
:10305000003802400070004008544007003C024025
:1030600080B485B000AF78600A4B1B68002B02D19A
:10307000084B094A1A60074B1B68FB60054B1A682E
:103080007B681344034A1360FB6818461437BD4637
:1030900080BC7047280B0020BC1B002080B584B08A
:1030A00000AF786001210120FFF7E4F84FF4C0532E
:1030B000BB6003237B7302233B730023BB7300239A
:1030C000FB7307F1080319461F48FFF735FD0A2275
:1030D0000B211D48FFF7CCFD0A220C211A48FFF7EF
:1030E000C7FD4FF40073BB6003237B7300233B7366
:1030F0000123BB730023FB7307F108031946124831
:10310000FFF71AFD4FF48063BB600123BB730123FB
:10311000FB7303237B7307F1080319460A48FFF783
:103120000BFD0A220A210848FFF7A2FD01214FF4F6
:103130008040FFF7F9F801218020FFF7B9F800BFC0
:103140001037BD4680BD00BF0000024080B584B08E
:1031500000AF78604FF4C06001F0F8FB43233B738D
:1031600001237B730323BB730123FB7307F10C0360
:10317000184601F0FDFB00BF1037BD4680BD00BF03
:1031800080B485B000AF78600023FB607A68134696
:103190001B019B1ADB001A460A4BA3FB0213D21A2F
:1031A000520813449B08BB60FB680133FB60FA685C
:1031B000BB689A4200D8F7E700BF1437BD4680BC11
:1031C000704700BF2549922480B582B000AF786077
:1031D0007B684FF47A7202FB03F31846FFF7D0FFC7
:1031E00000BF0837BD4680BD80B500AF4FF48020DA
:1031F00001F09EFB00BF80BD80B500AF024800F02B
:1032000093FC00BF80BD00BF380C002080B584B0A7
:1032100000AF786039600023FB733B685B78092B53
:1032200039D801A252F823F0793200088D32000813
:103230009732000883320008973200085B3200089A
:1032400051320008973200086F32000865320008DA
:103250003968786800F036F922E03968786800F05B
:1032600005FA1DE03968786800F03EFA18E0396820
:10327000786800F0B3FA13E03968786800F0DEFA95
:103280000EE03968786800F003FB09E03968786877
:1032900000F06AFB04E03968786800F0D5FB00BFF5
:1032A000FB7B18461037BD4680BD00BF80B584B09B
:1032B00000AF786039600023FB737B6893F81231AC
:1032C000032B1BD13B689B88DBB2012B11D87B6899
:1032D000D3F8E4359B683968786898473B68DB88A1
:1032E000002B10D1FB7B002B0DD1786802F0BAF8CF
:1032F00009E03968786800F0A7FB04E0396878686D
:1033000000F0A2FB00E000BFFB7B18461037BD4673
:1033100080BD00BF80B584B000AF78603960002305
:10332000FB733B689B88BB733B685B78012B39D090
:10333000032B02D0002B6CD0BDE07B6893F81231D8
:10334000022B02D0032B0CD025E0BB7B002B27D017
:10335000BB7B802B24D0BB7B1946786801F0FEFC38
:103360001EE03B685B88002B0AD1BB7B002B07D09B
:10337000BB7B802B04D0BB7B1946786801F0EEFC48
:103380007B68D3F8E4359B68396878689847786833
:1033900002F068F805E03968786800F055FB00E055
:1033A00000BF88E07B6893F81231022B02D0032B18
:1033B0000CD025E0BB7B002B27D0BB7B802B24D0FF
:1033C000BB7B1946786801F0C9FC1EE03B685B884E
:1033D000002B1CD1BB7B002B0ED0BB7B802B0BD0DA
:1033E000BB7B1946786801F0F7FC7B68D3F8E435BD
:1033F0009B68396878689847786802F033F806E087
:103400003968786800F020FB02E000BF53E000BF9D
:1034100051E07B6893F81231022B02D0032B0CD0C1
:1034200042E0BB7B002B44D0BB7B802B41D0BB7BDD
:103430001946786801F092FC3BE097F90E30002BBA
:1034400015DABB7B03F07F02796813469B001344B7
:10345000DB000B4403F58F731B78002B03D0184B54
:1034600001221A601AE0164B00221A6016E097F942
:103470000E30002B12DBBA7B796813469B00134495
:10348000DB000B4403F276331B78002B03D00C4B8C
:1034900001221A6002E00A4B00221A600222084947
:1034A000786801F077FF05E03968786800F0CCFAB9
:1034B00000E000BF00BFFB7B18461037BD4680BD53
:1034C0002C0B002080B584B000AF786039603B6879
:1034D0005B881B0A9BB2013B062B00F2A98001A26C
:1034E00052F823F00135000831350008593500083D
:1034F00031360008313600081D360008273600082E
:103500007B68D3F8EC351B687A68927807F10A017A
:1035100010469847F8603B68DB88402B05D07B68F5
:1035200093F81231012B40F0888008237B8184E0DE
:103530007B68D3F8E4359B6A7A68927807F10A01D0
:1035400010469847F860FB68013302221A707B68C6
:10355000FA68C3F8F02571E03B685B88DBB2052BA5
:1035600056D801A252F823F0813500089935000899
:10357000B1350008C9350008E1350008F935000803
:103580007B68D3F8EC355B687A68927807F10A01BA
:1035900010469847F86040E07B68D3F8EC359B68AC
:1035A0007A68927807F10A0110469847F86034E08B
:1035B0007B68D3F8EC35DB687A68927807F10A010A
:1035C00010469847F86028E07B68D3F8EC351B6913
:1035D0007A68927807F10A0110469847F8601CE073
:1035E0007B68D3F8EC355B697A68927807F10A0159
:1035F00010469847F86010E07B68D3F8EC359B697B
:103600007A68927807F10A0110469847F86004E05A
:103610003968786800F018FA25E00FE039687868B2
:1036200000F012FA1FE03968786800F00DFA1AE02D
:103630003968786800F008FA15E000BF7B89002B34
:1036400011D03B68DB88002B0DD03B68DA887B8982
:10365000934228BF13469BB27B817B891A46F96847
:10366000786801F097FE1037BD4680BD80B584B004
:1036700000AF786039603B689B88002B2CD13B6899
:10368000DB88002B28D13B685B88DBB203F07F032B
:10369000FB737B6893F81231032B04D13968786887
:1036A00000F0D2F91CE07B68FA7B83F81421FB7BE5
:1036B0001946786801F0CEFB786801F0D3FEFB7BF9
:1036C000002B04D07B68022283F8122108E07B687B
:1036D000012283F8122103E03968786800F0B4F918
:1036E00000BF1037BD4680BD80B582B000AF7860A6
:1036F00039603B685B88DAB2374B1A70364B1B78FF
:10370000012B04D93968786800F09EF95FE07B6886
:1037100093F81231022B02D0032B1BD052E02E4B18
:103720001B78002B12D02C4B1A787B6883F8102161
:103730007B68032283F81221274B1B78194678688F
:10374000FEF7D4FA786801F08DFE40E0786801F069
:1037500089FE3CE0204B1B78002B12D17B680222B3
:1037600083F812211C4B1A787B6883F810211A4BBE
:103770001B7819467868FEF7D1FA786801F072FE76
:1037800025E07B6893F81021134B1B789A4215D0E3
:103790007B6893F8103119467868FEF7BFFA0E4B34
:1037A0001A787B6883F810210B4B1B7819467868D0
:1037B000FEF79CFA786801F055FE08E0786801F0A1
:1037C00051FE04E03968786800F03EF900BF00BFA0
:1037D0000837BD4680BD00BF380B002080B582B0E1
:1037E00000AF786039603B68DB88012B04D0396812
:1037F000786800F029F91BE07B6893F81231022BFE
:1038000002D0032B06D00EE001220B49786801F0AC
:10381000C1FD0DE07B6803F58873012219467868C5
:1038200001F0B8FD04E03968786800F00DF900BFD8
:1038300000BF0837BD4680BD300B002080B582B088
:1038400000AF786039607B6893F81231023B012B3E
:1038500013D80E4B01221A607B68D3F81831002B65
:1038600005D00A4B1B6843F00203084A136002228A
:103870000649786801F08EFD04E03968786800F048
:10388000E3F800BF00BF0837BD4680BD340B002001
:1038900080B584B000AF786039600023FB733B686B
:1038A0005B88012B0ED17B680122C3F818217B684D
:1038B000D3F8E4359B68396878689847786801F0F0
:1038C000D1FD4BE03B685B88022B47D13B689B886E
:1038D000DBB2002B42D17B681B695B68BB603B6835
:1038E0009B881B0A9BB2FB73FB7B013B042B2BD8F1
:1038F00001A252F823F000BF0D3900081939000861
:1039000025390008313900083D3900083B7A012289
:1039100062F306133B7217E03B7A022262F306134E
:103920003B7211E03B7A032262F306133B720BE019
:103930003B7A042262F306133B7205E03B7A0522D0
:1039400062F306133B7200BF064ABB6813607B68D4
:10395000012283F81621786801F084FD00BF10373A
:10396000BD4680BDA40B002080B582B000AF78605A
:1039700039607B6893F81231023B012B12D83B6807
:103980005B88012B13D17B680022C3F818217B6868
:10399000D3F8E4359B68396878689847786801F00F
:1039A00061FD04E03968786800F04EF800E000BF7F
:1039B00000BF0837BD4680BD80B483B000AF7860DB
:1039C00039607B6893F8CC253B681A707B6893F864
:1039D000CD253B685A707B6893F8CE359AB27B68E8
:1039E00093F8CF359BB21B029BB213449AB23B684B
:1039F0005A807B6893F8D0359AB27B6893F8D135BA
:103A00009BB21B029BB213449AB23B689A807B68BC
:103A100093F8D2359AB27B6893F8D3359BB21B02E8
:103A20009BB213449AB23B68DA803B68DB881A4643
:103A30007B68C3F840217B68012283F8112100BF15
:103A40000C37BD4680BC704780B582B000AF78604F
:103A500039608021786801F081F90021786801F0EF
:103A60007DF97868FDF754FC00BF0837BD4680BD7E
:103A700080B586B000AFF860B9607A600023FB754E
:103A8000FB68002B33D0F86800F036F803460133AA
:103A90009BB25B009AB27B681A80FB7D5A1CFA7558
:103AA0001A46BB6813447A681288D2B21A70FB7D3A
:103AB0005A1CFA751A46BB68134403221A7012E0A6
:103AC000FB7D5A1CFA751A46BB681A44FB68591CE0
:103AD000F9601B781370FB7D5A1CFA751A46BB6897
:103AE000134400221A70FB681B78002BE8D100BF3A
:103AF0001837BD4680BD00BF80B485B000AF786088
:103B00000023FB7305E0FB7B0133FB737B68013310
:103B10007B607B681B78002BF5D1FB7B1846143744
:103B2000BD4680BC704700BF80B586B000AF7860EE
:103B300000237B617868FCF72DFE0346002B00F024
:103B40009C807868FCF738FE03463B613B69002B9C
:103B500001D1002392E0BB7C03F00803DBB2002B11
:103B600006D0786800F0FAF902467B6913437B615E
:103B7000BB7C03F00403DBB2002B06D0786800F0B6
:103B80001FF902467B6913437B613B7C03F0020310
:103B9000DBB2002B09D00023FB603B7B43F0020328
:103BA0003B737B68DB68FA685A61FB7C23F07F0318
:103BB000DBB2002B06D0786800F064F802467B691F
:103BC00013437B617B7C03F00803DBB2002B06D040
:103BD000786800F097F802467B6913437B613B7C71
:103BE00003F00803DBB2002B06D0786800F05EFA21
:103BF00002467B6913437B613B7C03F01003DBB21D
:103C0000002B06D0786800F06BFA02467B691343FC
:103C10007B617B7C03F01003DBB2002B06D078685D
:103C200000F052FB02467B6913437B617B7C03F00F
:103C30002003DBB2002B06D0786800F0D5FB0246EB
:103C40007B6913437B61BB7C03F01003DBB2002B69
:103C500006D0786800F004FC02467B6913437B6160
:103C6000BB7C03F02003DBB2002B06D0786800F0A9
:103C700011FC02467B6913437B617B691846183748
:103C8000BD4680BD80B586B000AF78607B689B7A0A
:103C9000002B11D07B6803F586731B68FB603B7BB0
:103CA0006FF341033B733B7B6FF300033B737B6814
:103CB000D3F80C31FA681A6000233B613B7C43F077
:103CC00001033B747B681B697A68126951683A6921
:103CD000D2430A405A600A4B1B689B697868984730
:103CE00000237B61FB7D43F08003FB757B68DB6811
:103CF0007A695A61012318461837BD4680BD00BF56
:103D00004C00002080B586B000AF78600023FB72C5
:103D10007B6893F81231FB72274B1B685B697868EC
:103D200098477B681B699B68FB6000237B617B7DF8
:103D300043F008037B757B68DB687A695A617B68AE
:103D40009B7A002B32D03B7B03F00103DBB2002BCC
:103D50002CD07B6893F81531012B27D1FB7ADBB28D
:103D6000032B23D100233B613B7C43F001033B74D5
:103D70007B68D3F80C317A68D2F80C2111683A6963
:103D80000A431A603B7C43F002033B747B68D3F820
:103D90000C317A68D2F80C2111683A690A431A602A
:103DA000064A064B1B6943F00603136101231846BC
:103DB0001837BD4680BD00BF4C00002000ED00E07C
:103DC00080B586B000AF786000233B610023BB6004
:103DD0007868FDF787FA7861B4E07B6903F0010346
:103DE000002B00F0A9803B69DBB21946786800F02F
:103DF0006BFB0346BB603B7A03F00103DBB2002B95
:103E000032D001223B6902FA03F3FB607B681B6935
:103E10007A681269516BFA68D2430A405A630023E8
:103E2000BB603B7A43F001033B727A683B69043321
:103E30009B0013449B68BA689A60474B1B685B6899
:103E40003A69D2B21146786898477B68DB78012BD3
:103E50000AD13B69002B07D17B6893F81131042B01
:103E600002D17868FDF754FA3B7A03F00803DBB21D
:103E7000002B0DD00023BB603B7A43F008033B725C
:103E80007A683B6904339B0013449B68BA689A6064
:103E90003B7A03F01003DBB2002B0DD00023BB6094
:103EA0003B7A43F010033B727A683B6904339B0012
:103EB00013449B68BA689A603B7A03F04003DBB214
:103EC000002B0DD00023BB603B7A43F040033B72D4
:103ED0007A683B6904339B0013449B68BA689A6014
:103EE0003B7A03F00203DBB2002B0DD00023BB6052
:103EF0003B7A43F002033B727A683B6904339B00D0
:103F000013449B68BA689A603B7A23F07F03DBB264
:103F1000002B11D03969786800F064F90023BB6088
:103F20003B7A43F080033B727A683B6904339B0021
:103F300013449B68BA689A603B6901333B617B69B3
:103F40005B087B617B69002B7FF447AF0123184638
:103F50001837BD4680BD00BF4C00002080B586B03C
:103F600000AF786000233B610023FB607868FDF7B9
:103F700089F978618FE07B6903F00103002B00F081
:103F800084803B69DBB219467868FDF791F90346F6
:103F9000FB603B7B03F00103DBB2002B48D0002326
:103FA000FB603B7B43F001033B737A683B6914334E
:103FB0009B0013445B68FA689A607B68DB78012B8E
:103FC0001FD17A683B6914339B0013445B681B69FB
:103FD000BB6079683A6913469B001344DB000B44CD
:103FE00003F55F731B68BA68C2F31202991A786806
:103FF0003A6913469B001344DB00034403F56373E3
:104000001960294B1B681B683A69D2B2114678685F
:1040100098477B68DB78012B0AD13B69002B07D1DD
:104020007B6893F81131052B02D17868FDF770F9A0
:104030003B7B03F00203DBB2002B0DD00023FB60BF
:104040003B7B43F002033B737A683B6914339B006C
:1040500013445B68FA689A603B7B03F00803DBB2A9
:10406000002B12D0104B1B689B6878689847002380
:10407000FB603B7B43F008033B737A683B69143376
:104080009B0013445B68FA689A603B6901333B61AB
:104090007B695B087B617B69002B7FF46CAF01233C
:1040A00018461837BD4680BD4C00002080B584B04E
:1040B00000AF7860094B1B68DB687868984700237D
:1040C000FB603B7B43F008033B737B68DB68FA686B
:1040D0005A61012318461037BD4680BD4C000020B0
:1040E00080B586B000AF786000233B613B7C43F035
:1040F00010033B747B68DB687A68D26891693A691F
:10410000D2430A409A617B68DB681B6AFB603B7B99
:10411000C3F30303DBB21A4613469B001344DB00D0
:1041200003F55C737A68134404337B61BB7BC3F390
:104130004303DBB2013B052B44D801A252F823F024
:10414000C541000859410008C5410008C5410008A3
:10415000C5410008A1410008BA8947F6F073134031
:104160009BB2002B30D07B69D968BB89C3F30A139B
:104170009BB21A467868FCF7ABF87B69DB68BA89B2
:10418000C2F30A1292B21A447B69DA607B699B69B6
:10419000BA89C2F30A1292B21A447B699A6113E097
:1041A0007B6803F2CC53082219467868FCF790F834
:1041B0007B699B69BA89C2F30A1292B21A447B697D
:1041C0009A6102E000BF00E000BF7B68DB687A68AC
:1041D000D26891693A690A439A61012318461837EF
:1041E000BD4680BD80B586B000AF786039600023E1
:1041F0007B610023BB603A6813469B001344DB00DD
:1042000003F58C737A6813440433FB60FB685A69C6
:10421000FB689B69D31A7B61FB689A687B699A4249
:1042200002D2FB689B687B617B6903339B083B611F
:104230007A683B6804339B0013449B689B69BB60AE
:104240002EE0FB685A69FB689B69D31A7B61FB68A7
:104250009A687B699A4202D2FB689B687B617B69A2
:1042600003339B083B61FB68D9683B68DAB27B6922
:104270009BB27868FBF7F2FFFB68DA687B691A4447
:10428000FB68DA60FB689A697B691A44FB689A618B
:104290007A683B6804339B0013449B689B69BB604E
:1042A0003B891A463B699A4209D9FB689A69FB68BF
:1042B0005B699A4203D2FB685B69002BC1D1012381
:1042C00018461837BD4680BD80B58AB000AF78600B
:1042D00000233B6100233B620023FB610023BB61A1
:1042E00000237B610023FB603B7C43F001033B74B4
:1042F0007B681B697A68126951683A69D2430A403F
:104300005A6000217868FCF79DF900237B6212E077
:104310007A687B6A04339B0013449B68FF229A608F
:104320007A687B6A14339B0013445B68FF229A60AF
:104330007B6A01337B627B685B781A467B6A9A42B0
:10434000E6D87B681B694FF0FF329A6101233B84FA
:1043500001237B847B681B693A6ADA613B7F43F007
:1043600008033B773B7F43F001033B773B7F43F000
:1043700002033B777B681B69FA695A613B7E43F015
:1043800001033B763B7E43F008033B763B7E43F0E4
:1043900002033B767B681B69BA691A617B681B69FB
:1043A0001B687B61BB8A6FF30A13BB827B681B6946
:1043B0007A691A607868FCF7ABFF0023FB607B7BAF
:1043C00043F010037B737B68DB68FA685A61054B26
:1043D0001B681B6978689847012318462837BD4633
:1043E00080BD00BF4C00002080B584B000AF786075
:1043F0007868FCF7B5FB7B68DB68DB68BB607868D6
:10440000FCF78AFB0346032B0CD17B6800229A70D1
:104410007B684FF400729A807B7A092262F38503ED
:104420007B720AE07B6801229A707B6840229A8046
:104430007B7A052262F385037B727B68DB68BA684E
:10444000DA600023FB607B7B43F020037B737B6897
:10445000DB68FA685A61012318461037BD4680BDF3
:1044600080B584B000AF78600023FB60084B1B6808
:10447000DB6978689847BB7B43F01003BB737B68AC
:10448000DB68FA685A61012318461037BD4680BDC3
:104490004C00002080B584B000AF78600023FB6042
:1044A000084B1B681B6A78689847BB7B43F0200366
:1044B000BB737B68DB68FA685A61012318461037C2
:1044C000BD4680BD4C00002080B487B000AF78604E
:1044D0000B46FB707B681B691B697B617B681B69F2
:1044E0005B6B3B61FB783A6922FA03F3DB01DBB2D9
:1044F0007A6913437B61FB787A6804339B00134429
:104500009B689A687B691340FB60FB6818461C3700
:10451000BD4680BC704700BF80B584B000AF7860F6
:104520000B46FB70022340228121786800F004FBD7
:10453000022340220121786800F0FEFA03230822BA
:104540008221786800F0F8FA0B4BFB60FB680433BB
:1045500002221A70FB68053300221A70074B1B6891
:1045600098474023064A0121786800F079FB002330
:1045700018461037BD4680BD7C000020A8000020F2
:104580007013002080B582B000AF78600B46FB70DE
:104590008121786800F028FB0121786800F024FB75
:1045A0008221786800F020FB034B5B68984700236A
:1045B00018460837BD4680BDA800002080B584B0ED
:1045C00000AF786039603A23FB813F4BBB603B68AA
:1045D0001B7803F06003002B3DD0202B35D13B68C6
:1045E000DB88002B27D03B681B785BB2002B10DAEE
:1045F000364B9B683A68527810463A68D2883449FC
:1046000098473B68DB881A463149786800F0C2FE5B
:1046100019E03B685B781A462E4B1A603B68DB88D2
:104620001A462D4B1A603B68DB881A462849786881
:1046300000F0E4FE07E0254B9B683A68527810468C
:1046400000220021984700233AE039687868FFF794
:10465000FBF9022334E03B685B780A2B18D00B2B64
:104660001CD0062B2BD13B685B881B0A9BB2212BED
:1046700007D11A4BBB603B68DB883A2B28BF3A2333
:10468000FB81FB891A46B968786800F083FE16E062
:1046900001221349786800F07DFE10E03B685B88DA
:1046A000DBB2002B06D13B685B88DBB21A460C4BB1
:1046B0001A6003E039687868FFF7C6F900BF002385
:1046C00018461037BD4680BDD9000020A800002044
:1046D000B013002014010020500B0020E200002045
:1046E0003C0B002080B582B000AF7860094B1B689E
:1046F000FF2B0AD0084B9B68064A1068074A1268CD
:1047000007499847034BFF221A60002318460837D1
:10471000BD4680BD14010020A8000020500B0020E1
:10472000B013002080B584B000AF78600B46FB70FA
:104730001E4B1B78012B33D11D4B1B68002B03D163
:104740001A4B00221A702BE0194B1B68402B0FD913
:10475000184B1B68FB814023BB81164B1B68403301
:10476000144A1360124B1B68403B114A13600FE060
:10477000104B1B68FB810E4B1B68BB810D4B1A68ED
:104780000B4B1B6813440B4A1360094B00221A6041
:10479000FB89094A1A44BB898121786800F0A2FA92
:1047A000002318461037BD4680BD00BF4C0B0020CB
:1047B000480B0020440B0020B813002080B584B0C3
:1047C00000AF78600B46FB70FA78796813469B005F
:1047D0001344DB000B4403F563731B68FB81084B38
:1047E0001B69FA891146074898474023054A012169
:1047F000786800F035FA002318461037BD4680BDB2
:10480000A80000207013002080B582B000AF78604F
:10481000084B1B685A1C07490A60052B05D1054B3C
:1048200000221A60786800F007F80023184608375D
:10483000BD4680BD540B002080B584B000AF7860C9
:104840002D4B1B78012B54D02C4B1B68B3F5006FFC
:1048500002D12A4B00221A60284B1A68284B1B6889
:104860009A4203D1244B00221A7042E0234B1A686B
:10487000234B1B689A4206D9204B1B68C3F5006383
:10488000204A136006E01E4B1A681C4B1B68D31AA3
:104890001C4A13601B4B1B68402B0FD9174B1B681E
:1048A000FB814023BB81154B1B684033134A1360C7
:1048B000144B1B68403B134A13600FE00F4B1B68FF
:1048C000FB81104B1B68BB810C4B1A680D4B1B689E
:1048D00013440A4A13600B4B00221A60064B012254
:1048E0001A70FB89084A1A44BB898121786800F054
:1048F000F9F91037BD4680BD4C0B0020440B002059
:10490000400B0020480B0020B813002080B483B077
:1049100000AF03463960FB713B6843221A80034BAA
:1049200018460C37BD4680BC704700BFD000002041
:1049300080B483B000AF7860034A7B68536100BFE6
:104940000C37BD4680BC7047003C014080B483B04A
:1049500000AF7860054A7B6843F0BF6343F40033DF
:10496000D36000BF0C37BD4680BC704700ED00E04F
:1049700080B485B000AF78600023FB730023BB7365
:104980000F237B737B68DB78002B38D0264BDB68EA
:10499000DB4303F4E0631B0AFB73FB7BC3F10403FB
:1049A000BB737A7BFB7B42FA03F37B737B685B7898
:1049B0001A46BB7B02FA03F3FB737B689A787B7B16
:1049C0001340DAB2FB7B1343FB73FB7B1B01FB73CE
:1049D000164A7B681B781344FA7B83F80023134A3A
:1049E0007B681B785B09DBB218467B681B7803F099
:1049F0001F03012101FA03F342F820300FE00B49B5
:104A00007B681B785B09DBB218467B681B7803F078
:104A10001F0301229A4000F1200341F8232000BF28
:104A20001437BD4680BC704700ED00E000E100E0B7
:104A300080B584B000AF78600B46FB70FB781946F8
:104A40007868FBF771FC7B68012283F812217B6890
:104A5000002283F814210023FB6024E0FA68134647
:104A60009B001344DB0003F58C737A681344043312
:104A7000BB60BB6801225A70FB68DAB2BB681A706F
:104A8000FB689AB2BB68DA80BB680022DA70BB6848
:104A900040229A60BB680022DA60BB6800225A613B
:104AA000FB680133FB607B685B781A46FB689A42BF
:104AB000D4D80023FB6024E0FA6813469B0013441B
:104AC000DB0003F55C737A6813440433BB60BB6896
:104AD00000225A70FB68DAB2BB681A70FB689AB29F
:104AE000BB68DA80BB680022DA70BB6840229A603B
:104AF000BB680022DA60BB6800225A61FB680133A0
:104B0000FB607B685B781A46FB689A42D4D8786869
:104B1000FBF77CFD7868FBF7C1FC00217868FBF7A8
:104B2000FBFD7868FBF77AFE7868FBF755FD00BF60
:104B30001037BD4680BD00BF80B584B000AF78603F
:104B4000084611461A460346FB700B463B80134647
:104B5000BB7097F90330002B0DDAFB7803F07F026E
:104B600013469B001344DB0003F58C737A681344EF
:104B70000433FB600CE0FB7803F07F0213469B00DC
:104B80001344DB0003F55C737A6813440433FB6061
:104B9000FB7803F07F03DAB2FB681A7097F90330F1
:104BA000DBB2DB09DBB21A46FB685A703A88FB6855
:104BB0009A60FB68BA78DA70FB685B78002B04D0E7
:104BC000FB681B789AB2FB68DA80BB78022B02D1B3
:104BD000FB6800221A71F9687868FBF7FBFF002375
:104BE00018461037BD4680BD80B584B000AF7860F0
:104BF0000B46FB7097F90330002B0DDAFB7803F0BE
:104C00007F0213469B001344DB0003F58C737A6824
:104C100013440433FB600CE0FB7803F07F0213467F
:104C20009B001344DB0003F55C737A681344043380
:104C3000FB60FB7803F07F03DAB2FB681A7097F928
:104C40000330DBB2DB09DBB21A46FB685A70F96845
:104C50007868FCF72DF8002318461037BD4680BD54
:104C600080B586B000AFF8607A601A460B46FB72DA
:104C700013463B81FB7A03F07F0213469B001344EB
:104C8000DB0003F55C73FA68134404337B617B69D2
:104C90007A68DA603A897B695A617B6900229A6195
:104CA0007B6900225A70FB7A03F07F03DAB27B69DA
:104CB0001A70FB68DB78012B02D17A687B691A6174
:104CC0007B691B78002B04D17969F868FCF774F9CB
:104CD00003E07969F868FCF72FF8002318461837C5
:104CE000BD4680BD80B586B000AFF8607A603B609D
:104CF0000B46FB72FB7A03F07F0213469B001344C2
:104D0000DB0003F58C73FA68134404337B617B6921
:104D100001225A70FB7A03F07F03DAB27B691A70C2
:104D20007B697A68DA607A687B691A617B6900223C
:104D30009A617B693A685A617B691B78002B04D1C0
:104D40007969F868FCF738F903E07969F868FBF7E6
:104D5000F3FF002318461837BD4680BD80B584B0E8
:104D600000AF78600B46FB7097F90330002B0DDA2B
:104D7000FB7803F07F0213469B001344DB0003F52E
:104D80008C737A6813440433FB600AE0FA781346A4
:104D90009B001344DB0003F55C737A68134404330F
:104DA000FB60FB6801229A70FB7803F07F03DAB2A4
:104DB000FB681A7097F90330DBB2DB09DBB21A46E5
:104DC000FB685A70F9687868FCF7E0F90023184628
:104DD0001037BD4680BD00BF80B584B000AF78609D
:104DE0000B46FB7097F90330002B0DDAFB7803F0CC
:104DF0007F0213469B001344DB0003F58C737A6833
:104E000013440433FB600AE0FA7813469B00134412
:104E1000DB0003F55C737A6813440433FB60FB68C2
:104E200000229A70FB7803F07F03DAB2FB681A70F5
:104E300097F90330DBB2DB09DBB21A46FB685A7024
:104E4000F9687868FCF7E4F9002318461037BD4686
:104E500080BD00BF80B485B000AF78600B46FB70AA
:104E60000023FB60FB7803F07F03DAB2BB8962F3B7
:104E70000A13BB817B681B697A6812691168FA683A
:104E80000A431A6000BF1437BD4680BC704700BF9C
:104E900080B584B002AF7860084611461A460346D2
:104EA0007B800B467B7013463B707B88002B0ED0BB
:104EB000786800F021F838787A7879883B7D01931A
:104EC0003B7C00930346786800F02EF800E000BFBA
:104ED0000837BD4680BD00BF80B483B000AF7860A6
:104EE0007B6803F13F4303F57E039B0A9BB21846A0
:104EF0000C37BD4680BC704780B582B000AF78608B
:104F00007868FFF7E9FF03461A46012303FA02F126
:104F1000044A044B1B6B0B43136300BF0837BD46A9
:104F200080BD00BF0038024080B584B000AF78601B
:104F3000084611461A4603467B800B467B70134693
:104F40003B707868FFF7C8FF0346BB730023FB7311
:104F500067E07A88FB7B42FA03F303F00103002B3E
:104F60005BD0BB7BBA7B324931F8122011B2FA7B9D
:104F7000012000FA02F212B20A4312B291B22C4A94
:104F800022F813107B68DB68FA7B5200032101FAD8
:104F900002F2D2431340397EFA7B520001FA02F248
:104FA0001A437B68DA607B681A68FB7B5B0003212D
:104FB00001FA03F3DB4313407978FA7B520001FADC
:104FC00002F21A437B681A607B78012B02D07B784F
:104FD000022B23D17B685B68FA7B012101FA02F284
:104FE00092B2D24313403978FA7B01FA02F292B2BC
:104FF0001A437B685A607B689A68FB7B5B000321DD
:1050000001FA03F3DB431340397FFA7B520001FAC4
:1050100002F21A437B689A6000E000BFFB7B013319
:10502000FB73FB7B0F2B94D900BF1037BD4680BDAF
:10503000580B002080B586B000AF7860396007F16A
:1050400008031846FDF76CF83B684FF6FF729A604C
:105050007B68B3F1804F03D07B68294A934208D123
:105060007A693B681A603B684FF0FF325A60002350
:1050700042E07B68234A93420FD07B68224A9342E6
:105080000BD07B68214A934207D07B68204A934229
:1050900003D07B681F4A934208D1FA683B681A60C4
:1050A0003B684FF6FF725A60002325E07B681A4A7E
:1050B000934217D07B68194A934213D07B68184AF1
:1050C00093420FD07B68174A93420BD07B68164AF5
:1050D000934207D07B68154A934203D07B68144AF9
:1050E000934208D17A693B681A603B684FF6FF72B9
:1050F0005A60002300E0022318461837BD4680BDE1
:10510000000C00400000014000040140004001404C
:1051100000440140004801400004004000080040F5
:10512000001000400014004000180040001C004027
:105130000020004090B585B000AFF860C7E90023BB
:10514000FB681B68184600F069FBD7E9002300F0F4
:105150004DFE0346002B0AD0FB6800221A61FB6853
:105160000022DA60FB6800225A61032369E04FF0F5
:1051700000024FF00003D7E9000100F02DFE0346C6
:10518000002B0AD0FB6800221A61FB680022DA605B
:10519000FB6800225A61042353E0FB685B68B3F5A7
:1051A000803F04D2FB685B685A1CFB685A60FB684E
:1051B00000221A61FB681A68FB681B690133B2FBA5
:1051C000F3F2FB68DA60FB68DB68184600F026FB48
:1051D000D7E9002300F0C2FC03460C4618462146DE
:1051E00000F02CFE0246FB68DA60FB681B695A1C63
:1051F000FB681A61FB68DA68FB685B689A4206D94B
:10520000FB681A69FB689B6801339A42D2D9FB6834
:105210001A69FB689B6801339A420AD9FB6800222D
:105220001A61FB680022DA60FB6800225A610423DD
:1052300007E0D7E9000100F001FE0246FB685A6171
:10524000002318461437BD4690BD00BF80B582B01C
:1052500000AF78607B68424A934204D1012101206B
:10526000FDF762F877E07B68B3F1804F04D101214C
:105270000120FDF73BF86EE07B683A4A934204D187
:1052800001210220FDF732F865E07B68364A93423F
:1052900004D101210420FDF729F85CE07B68334A42
:1052A000934204D101210820FDF720F853E07B68E8
:1052B0002F4A934204D101211020FDF717F84AE04C
:1052C0007B682C4A934204D101212020FDF70EF87F
:1052D00041E07B68284A934204D101210220FDF776
:1052E00023F838E07B68254A934205D101214FF429
:1052F0008030FDF719F82EE07B68214A934205D1F2
:1053000001214FF40030FDF70FF824E07B681D4ABF
:10531000934205D101214FF48020FDF705F81AE0F2
:105320007B68194A934204D101214020FCF7DEFF3B
:1053300011E07B68154A934204D101218020FCF7DB
:10534000D5FF08E07B68124A934204D101214FF453
:105350008070FCF7CBFF002318460837BD4680BDA0
:10536000000001400004004000080040000C004024
:1053700000100040001400400004014000400140C3
:10538000004401400048014000180040001C00405B
:105390000020004080B586B000AFF860B9601346C9
:1053A000FB800023FB75FA88FB68C3F83C21FA8870
:1053B000FB68C3F83821FB68022283F81121FB88BF
:1053C000BA680021F868FFF78DFCFB7D1846183796
:1053D000BD4680BD80B586B000AFF860B9601346A9
:1053E000FB800023FB75FB88BA680021F868FFF793
:1053F00079FCFB7D18461837BD4680BD80B586B068
:1054000000AFF860B9601346FB800023FB75FA8893
:10541000FB68C3F89423FA88FB68C3F89023FB6801
:10542000032283F81121FB88BA680021F868FFF78E
:1054300017FCFB7D18461837BD4680BD80B586B089
:1054400000AFF860B9601346FB800023FB75FB8852
:10545000BA680021F868FFF703FCFB7D184618378F
:10546000BD4680BD80B584B000AF78600023FB737B
:105470007B68042283F81121002300220021786830
:10548000FFF730FC7868FBF743FFFB7B18461037CB
:10549000BD4680BD80B584B000AF78600023FB734B
:1054A0007B68052283F811210023002200217868FF
:1054B000FFF7D6FB7868FBF72BFFFB7B184610370E
:1054C000BD4680BD80B485B000AF786039600023F0
:1054D000FB817B681B88FB817B68284A934213D041
:1054E0007B68274A93420FD07B68B3F1804F0BD083
:1054F0007B68244A934207D07B68234A934203D0B7
:105500007B68224A934208D1FB8923F07003FB8118
:105510003B685A88FB891343FB817B681C4A934292
:105520000CD07B681B4A934208D0FB8923F440735C
:10553000FB813B681A89FB891343FB817B68FA89ED
:105540001A803B685A687B68DA623B681A887B6815
:105550001A857B68094A934203D07B68084A9342C4
:1055600004D13B689B7A9AB27B681A867B680122D9
:105570009A8200BF1437BD4680BC704700000140CE
:10558000000401400004004000080040000C0040FE
:10559000001000400014004081F0004102E000BF14
:1055A00083F0004330B54FEA41044FEA430594EAE3
:1055B000050F08BF90EA020F1FBF54EA000C55EA1E
:1055C000020C7FEA645C7FEA655C00F0E2804FEAEF
:1055D0005454D4EB5555B8BF6D420CDD2C4480EAD1
:1055E000020281EA030382EA000083EA010180EA01
:1055F000020281EA0303362D88BF30BD11F0004F4F
:105600004FEA01314FF4801C4CEA113102D0404284
:1056100061EB410113F0004F4FEA03334CEA1333BF
:1056200002D0524263EB430394EA050F00F0A780D7
:10563000A4F10104D5F1200E0DDB02FA0EFC22FAD2
:1056400005F2801841F1000103FA0EF2801843FAC6
:1056500005F359410EE0A5F120050EF1200E012AB7
:1056600003FA0EFC28BF4CF0020C43FA05F3C018F5
:1056700051EBE37101F0004507D54FF0000EDCF16E
:10568000000C7EEB00006EEB0101B1F5801F1BD317
:10569000B1F5001F0CD349085FEA30004FEA3C0C1B
:1056A00004F101044FEA445212F5800F80F09A8011
:1056B000BCF1004F08BF5FEA500C50F1000041EB15
:1056C000045141EA050130BD5FEA4C0C404141EB19
:1056D000010111F4801FA4F10104E9D191F0000F40
:1056E00004BF01460020B1FA81F308BF2033A3F1C3
:1056F0000B03B3F120020CDA0C3208DD02F1140CBA
:10570000C2F10C0201FA0CF021FA02F10CE002F1F4
:105710001402D8BFC2F1200C01FA02F120FA0CFCED
:10572000DCBF41EA0C019040E41AA2BF01EB045136
:10573000294330BD6FEA04041F3C1CDA0C340EDC34
:1057400004F11404C4F1200220FA04F001FA02F377
:1057500040EA030021FA04F345EA030130BDC4F135
:105760000C04C4F1200220FA02F001FA04F340EA2A
:105770000300294630BD21FA04F0294630BD94F0DB
:10578000000F83F4801306BF81F480110134013DC2
:105790004EE77FEA645C18BF7FEA655C29D094EA33
:1057A000050F08BF90EA020F05D054EA000C04BFB1
:1057B0001946104630BD91EA030F1EBF002100209C
:1057C00030BD5FEA545C05D14000494128BF41F03B
:1057D000004130BD14F580043CBF01F5801130BD9F
:1057E00001F0004545F0FE4141F470014FF000002A
:1057F00030BD7FEA645C1ABF194610467FEA655CDB
:105800001CBF0B46024650EA013406BF52EA03357C
:1058100091EA030F41F4002130BD00BF90F0000F6A
:1058200004BF0021704730B54FF4806404F13204A6
:105830004FF000054FF0000150E700BF90F0000F5F
:1058400004BF0021704730B54FF4806404F1320486
:1058500010F0004548BF40424FF000013EE700BF56
:1058600042004FEAE2014FEA31014FEA02701FBFE6
:1058700012F07F4393F07F4F81F06051704792F0B8
:10588000000F14BF93F07F4F704730B54FF4607432
:1058900001F0004521F0004120E700BF50EA01027D
:1058A00008BF704730B54FF000050AE050EA01022A
:1058B00008BF704730B511F0004502D5404261EB9A
:1058C00041014FF4806404F132045FEA915C3FF4DB
:1058D000DCAE4FF003025FEADC0C18BF03325FEA74
:1058E000DC0C18BF033202EBDC02C2F1200300FA29
:1058F00003FC20FA02F001FA03FE40EA0E0021FA4E
:1059000002F11444C1E600BF70B54FF0FF0C4CF437
:10591000E06C1CEA11541DBF1CEA135594EA0C0FED
:1059200095EA0C0F00F0DEF82C4481EA030621EA28
:105930004C5123EA4C5350EA013518BF52EA033563
:1059400041F4801143F4801338D0A0FB02CE4FF015
:105950000005E1FB02E506F00042E0FB03E54FF045
:105960000006E1FB03569CF0000F18BF4EF0010E3D
:10597000A4F1FF04B6F5007F64F5407404D25FEA39
:105980004E0E6D4146EB060642EAC62141EA5551EC
:105990004FEAC52040EA5E504FEACE2EB4F1FD0C2E
:1059A00088BFBCF5E06F1ED8BEF1004F08BF5FEAAC
:1059B000500E50F1000041EB045170BD06F000465E
:1059C00046EA010140EA020081EA0301B4EB5C040B
:1059D000C2BFD4EB0C0541EA045170BD41F4801103
:1059E0004FF0000E013C00F3AB8014F1360FDEBF28
:1059F000002001F0004170BDC4F10004203C35DA04
:105A00000C341BDC04F11404C4F1200500FA05F386
:105A100020FA04F001FA05F240EA020001F0004227
:105A200021F0004110EBD37021FA04F642EB06019D
:105A30005EEA430E08BF20EAD37070BDC4F10C04C7
:105A4000C4F1200500FA04F320FA05F001FA04F28B
:105A500040EA020001F0004110EBD37041F1000177
:105A60005EEA430E08BF20EAD37070BDC4F1200582
:105A700000FA05F24EEA020E20FA04F301FA05F2EA
:105A800043EA020321FA04F001F0004121FA04F292
:105A900020EA020000EBD3705EEA430E08BF20EA62
:105AA000D37070BD94F0000F0FD101F0004640009C
:105AB00041EB010111F4801F08BF013CF7D041EA1E
:105AC000060195F0000F18BF704703F00046520022
:105AD00043EB030313F4801F08BF013DF7D043EAF3
